:020000040800F2
:1000000000000320C50400081105000811050008C0
:100010001105000811050008110500080000000086
:1000200000000000000000000000000011050008B2
:10003000110500080000000011050008B5040008C3
:100040001105000811050008110500081105000838
:100050001105000811050008110500081105000828
:100060001105000811050008110500081105000818
:100070001105000811050008110500081105000808
:1000800011050008110500081105000811050008F8
:1000900011050008110500081105000811050008E8
:1000A00011050008110500081105000811050008D8
:1000B00011050008110500081105000811050008C8
:1000C00011050008110500081105000811050008B8
:1000D00011050008110500081105000811050008A8
:1000E0007904000811050008110500081105000831
:1000F0001105000811050008110500081105000888
:100100001105000811050008110500081105000877
:100110001105000811050008110500081105000867
:100120001105000811050008110500081105000857
:100130001105000811050008110500081105000847
:100140001105000811050008110500081105000837
:100150001105000811050008110500081105000827
:100160001105000811050008110500081105000817
:100170001105000811050008110500080000000025
:1001800011050008110500081105000811050008F7
:1001900011050008110500081105000811050008E7
:0C01A000110500081105000811050008F9
:1001AC0010B5054C237833B9044B13B10448AFF3A5
:1001BC0000800123237010BD00000020000000000F
:1001CC005C05000808B5034B1BB103490348AFF3AA
:1001DC00008008BD00000000040000205C05000841
:1001EC0008B500F0D7F800F051F800F0EBF800F08B
:1001FC001DF90AE0124A936943F4000393610DE080
:10020C000F4A936943F4000393610E4B1B78002B48
:10021C00F0D00B4A936943F0800393610A4B1B881F
:10022C00B3F57A7FECD306498A6942F080028A6181
:10023C00B3F5FA6FE9D3044B00221A80E5E700BF4F
:10024C00000402401C0000201E00002000B500F03D
:10025C000700C0F1070CBCF1040F28BF4FF0040CD1
:10026C00031D062B0FD9C31E4FF0FF3E0EFA0CF0E8
:10027C0021EA000199400EFA03FE22EA0E0241EA3D
:10028C0002005DF804FB0023EEE700003F4A136810
:10029C0023F0F80343F080031360002393603B4B7F
:1002AC009B6813F00C0FFAD1384A136823F0807353
:1002BC001360364B1B6813F0007FFAD1334A136876
:1002CC0023F410231360314B1B6813F4003FFAD155
:1002DC002E4B1A6822F480221A601A6842F480327B
:1002EC001A602A4B1B6813F4003FFAD0274B1A688C
:1002FC0022F480221A601A6842F400221A6000224A
:10030C005A605A6842F480025A605A6822F03F02DE
:10031C0042F004025A605A686FF38E1242F434525F
:10032C005A605A6822F440325A601A6842F080725D
:10033C001A60164B1B6813F0007FFAD1134B9A68A6
:10034C0022F0030242F002029A609A6822F0F00254
:10035C009A609A6822F4E05242F4A0529A609A6829
:10036C0022F4604242F400429A609A6842F0605271
:10037C009A609A6822F040429A60054A136823F00A
:10038C000F0343F005031360704700BF00380240B1
:10039C00003C0240094A136B43F05E031363084BA5
:1003AC001A6842F400221A609A6842F440229A6059
:1003BC005A6A22F0F0025A62704700BF00380240BD
:1003CC000008024008B5154A536C43F4804353644B
:1003DC00A2F58032536923F0F00343F020035361FC
:1003EC000F4B1A6842F400521A609A6842F4005299
:1003FC009A60DA6842F40052DA600A4BD86800223C
:10040C001146C0F30220FFF721FF0001C0B2064BDA
:10041C0083F828034FF480725A6008BD00380240FC
:10042C00003C014000ED00E000E100E04FF0E02373
:10043C001A6922F001021A611A6942F002021A6169
:10044C001A6942F004021A615A6902F07F420649A5
:10045C000A435A619A6902F07F420A439A611A6907
:10046C0042F001021A6170471FBF02000B4A137859
:10047C000133DBB213701378DBB2012B08D9084AB5
:10048C001378B3FA83F35B091370044B00221A70D0
:10049C00044A536943F40053536170472000002011
:1004AC001C000020003C0140024A138801331380D9
:1004BC00704700BF1E000020DFF830D00C480D49FB
:1004CC000D4A002302E0D458C4500433C4188C42A3
:1004DC00F9D30A4A0A4C002301E013600432A24209
:1004EC00FBD300F011F8FFF77BFE704700000320F0
:1004FC0000000020000000207C0500080000002007
:10050C0024000020FEE7000070B50D4D0D4C641B5F
:10051C00A4100026A64209D10B4D0C4C00F018F883
:10052C00641BA4100026A64205D170BD55F8043BEF
:10053C0098470136EEE755F8043B98470136F2E749
:10054C007405000874050008740500087805000897
:10055C00F8B500BFF8BC08BC9E467047F8B500BFA4
:08056C00F8BC08BC9E46704774
:04057400D1010008A9
:04057800AD010008C9
:04000005080004C526
:00000001FF
