:020000040800F2
:100000000000032069090008B5090008B5090008C7
:10001000B5090008B5090008B5090008000000008E
:10002000000000000000000000000000B50900080A
:10003000B509000800000000B509000859090008CA
:10004000B5090008B5090008B5090008B509000898
:10005000B5090008B5090008B5090008B509000888
:10006000B5090008B5090008B5090008B509000878
:10007000B5090008B5090008B5090008B509000868
:10008000B5090008B5090008B5090008B509000858
:10009000B5090008B5090008B5090008B509000848
:1000A000B5090008B5090008B5090008B509000838
:1000B000B5090008B5090008B5090008B509000828
:1000C000B5090008B5090008B5090008B509000818
:1000D000B5090008B5090008B5090008B509000808
:1000E000A1080008B5090008B5090008B50900080D
:1000F000B5090008B5090008B5090008B5090008E8
:10010000B5090008B5090008B5090008B5090008D7
:10011000B5090008B5090008B5090008B5090008C7
:10012000B5090008B5090008B5090008B5090008B7
:10013000B5090008B5090008B5090008B5090008A7
:10014000B5090008B5090008B5090008B509000897
:10015000B5090008B5090008B5090008B509000887
:10016000B5090008B5090008B5090008B509000877
:10017000B5090008B5090008B5090008000000002D
:10018000B5090008B5090008B5090008B509000857
:10019000B5090008B5090008B5090008B509000847
:0C01A000B5090008B5090008B509000801
:1001AC0010B5054C237833B9044B13B10448AFF3A5
:1001BC0000800123237010BD00000020000000000F
:1001CC00000A000808B5034B1BB103490348AFF301
:1001DC00008008BD0000000004000020000A000898
:1001EC0000B599B000F06AF900F0ECF900F036FABD
:1001FC0000F06EFA012114A800F08AFA022110A86E
:10020C0000F086FA03210CA800F082FA042108A859
:10021C0000F07EFA052104A800F07AFA062168465F
:10022C0000F076FAD7E0934B1B78DBB2012B2CD085
:10023C00904B1B78DBB2022B3AD08E4B1B78DBB287
:10024C00032B48D08B4B1B78DBB2042B56D0894B3D
:10025C001B78DBB2052B64D0864B1B78DBB2062BEC
:10026C0040F0B98014A800F08BFA10A800F088FABE
:10027C000CA800F085FA08A800F082FA04A800F097
:10028C007FFA684600F07CFAA5E014A800F078FA32
:10029C0010A800F0ABFA0CA800F0A8FA08A800F01F
:1002AC00A5FA04A800F0A2FA684600F09FFA92E0C2
:1002BC0014A800F065FA10A800F062FA0CA800F07F
:1002CC0095FA08A800F092FA04A800F08FFA684694
:1002DC0000F08CFA7FE014A800F052FA10A800F09D
:1002EC004FFA0CA800F04CFA08A800F07FFA04A80A
:1002FC0000F07CFA684600F079FA6CE014A800F083
:10030C003FFA10A800F03CFA0CA800F039FA08A843
:10031C0000F036FA04A800F069FA684600F066FAB4
:10032C0059E014A800F02CFA10A800F029FA0CA837
:10033C0000F026FA08A800F023FA04A800F020FA2E
:10034C00684600F053FA46E04A4B1B78002B30D03D
:10035C00484B1B78DBB2012B5AD0464B1B78DBB2D7
:10036C00022B59D0434B1B78DBB2032B5BD0414B98
:10037C001B78DBB2042B60D03E4B1B78DBB2052B19
:10038C0068D03C4B1B78DBB2062B24D114A800F0B0
:10039C0063FA10A800F060FA0CA800F05DFA08A847
:1003AC0000F05AFA04A800F057FA684600F054FA24
:1003BC0011E014A800F01AFA10A800F017FA0CA813
:1003CC0000F014FA08A800F011FA04A800F00EFAD4
:1003DC00684600F00BFA284B1B7813F0010FB3D1D1
:1003EC00244B1B78002B7FF41EAF14A800F0FEF9F1
:1003FC0010A800F0FBF90CA800F0F8F908A800F020
:10040C00F5F904A800F0F2F9684600F0EFF9E2E71C
:10041C0014A800F021FADEE714A800F01DFA10A8C9
:10042C0000F01AFAD7E714A800F016FA10A800F09A
:10043C0013FA0CA800F010FACDE714A800F00CFA8F
:10044C0010A800F009FA0CA800F006FA08A800F0B1
:10045C0003FAC0E714A800F0FFF910A800F0FCF9AB
:10046C000CA800F0F9F908A800F0F6F904A800F0BF
:10047C00F3F9B0E72A0000202800002000B500F0B6
:10048C000700C0F1070CBCF1040F28BF4FF0040C9F
:10049C00031D062B0FD9C31E4FF0FF3E0EFA0CF0B6
:1004AC0021EA000199400EFA03FE22EA0E0241EA0B
:1004BC0002005DF804FB0023EEE700003F4A1368DE
:1004CC0023F0F80343F080031360002393603B4B4D
:1004DC009B6813F00C0FFAD1384A136823F0807321
:1004EC001360364B1B6813F0007FFAD1334A136844
:1004FC0023F410231360314B1B6813F4003FFAD123
:10050C002E4B1A6822F480221A601A6842F4803248
:10051C001A602A4B1B6813F4003FFAD0274B1A6859
:10052C0022F480221A601A6842F400221A60002217
:10053C005A605A6842F480025A605A6822F03F02AC
:10054C0042F004025A605A686FF38E1242F434522D
:10055C005A605A6822F440325A601A6842F080722B
:10056C001A60164B1B6813F0007FFAD1134B9A6874
:10057C0022F0030242F002029A609A6822F0F00222
:10058C009A609A6822F4E05242F4A0529A609A68F7
:10059C0022F4604242F400429A609A6842F060523F
:1005AC009A609A6822F040429A60054A136823F0D8
:1005BC000F0343F005031360704700BF003802407F
:1005CC00003C024010B4204A136B43F05E031363EB
:1005DC001E4B1A6842F4A8021A601D48026842F0C9
:1005EC00100202601B490A6842F010020A601A4AA3
:1005FC00146844F0100414609C6844F47C049C60FF
:10060C00846844F0300484608C6844F030048C605E
:10061C00946844F0300494605C6824F460645C601A
:10062C00446824F004044460486820F004004860E6
:10063C00516821F0040151601A6822F040621A607E
:10064C005DF8044B704700BF0038024000080240C0
:10065C00000C0240001802400010024038B5184A45
:10066C00536C43F480435364A2F58032536923F0F6
:10067C00F00343F020035361124B1A6842F400520A
:10068C001A609A6842F400529A60DA6842F4005296
:10069C00DA605A6942F400525A610B4C4FF480757F
:1006AC00C4F88451094BD86800220121C0F3022000
:1006BC00FFF7E4FE0001C0B284F82803656038BD82
:1006CC0000380240003C014000E100E000ED00E099
:1006DC004FF0E0231A6922F001021A611A6942F004
:1006EC0002021A611A6942F004021A615A6902F094
:1006FC007F4206490A435A619A6902F07F420A43D3
:10070C009A611A6942F001021A6170471FBF020018
:10071C000170044B1B68436040F2E2438360012389
:10072C00037370472C0000200278124B1B78DBB24D
:10073C009A4200D07047104B1B78DBB20F4AA2FBD9
:10074C00031202F0FE0101EB52029B1ADBB2012BE9
:10075C0007D0022B09D0002BECD140F2E24383608E
:10076C00704740F2C7138360704740F207138360F1
:10077C00E0E700BF2A00002029000020ABAAAAAAAB
:10078C000378013B052B27D8DFE803F003090F158D
:10079C001B21124A936943F40073936170470F4A0B
:1007AC00936943F48063936170470C4A936943F4F3
:1007BC000063936170470A4A936943F004039361A1
:1007CC007047084A936943F0040393617047064AE3
:1007DC00936943F004039361704700BF0008024023
:1007EC00000C024000180240001002400378013B4C
:1007FC00052B27D8DFE803F003090F151B21124A3C
:10080C00936943F00073936170470F4A936943F007
:10081C008063936170470C4A936943F00063936162
:10082C0070470A4A936943F4802393617047084ADE
:10083C00936943F4802393617047064A936943F4A8
:10084C0080239361704700BF00080240000C0240F7
:10085C00001802400010024038B504460C4B1D68CD
:10086C004368ED1AFFF760FFA368AB420AD8084B48
:10087C001B686360237B83F0010323731BB1204649
:10088C00FFF77EFF38BD2046FFF7B0FFFAE700BF49
:10089C002C000020244B1A68244B1B68D31A312BD4
:1008AC0014D9224B1A60224B1B6913F4005F13D02E
:1008BC00204B1B7823B91F4B012119701E4B1A605A
:1008CC001E4A536943F40053536170471B4A5369E2
:1008DC0043F4005353617047164B1B78002BEFD039
:1008EC00144B00211970144B1B68D21AB2F5FA6F15
:1008FC000AD2134A13780133DBB213701378DBB2CC
:10090C00062BDDD91170DBE7B2F57A6F05D20D4AF3
:10091C0013780133DBB21370D2E70B4A137801332F
:10092C00DBB21370CCE700BF2C00002024000020A9
:10093C0000080240200000201C000020003C014068
:10094C002A0000202900002028000020024A1368F9
:10095C0001331360704700BF2C000020DFF830D04B
:10096C000C480D490D4A002302E0D458C4500433FE
:10097C00C4188C42F9D30A4A0A4C002301E01360D4
:10098C000432A242FBD300F011F8FFF729FC7047A8
:10099C00000003200000002000000020200A0008B6
:1009AC000000002030000020FEE7000070B50D4D67
:1009BC000D4C641BA4100026A64209D10B4D0C4C07
:1009CC0000F018F8641BA4100026A64205D170BDD7
:1009DC0055F8043B98470136EEE755F8043B984729
:1009EC000136F2E7180A0008180A0008180A00086D
:1009FC001C0A0008F8B500BFF8BC08BC9E4670473E
:0C0A0C00F8B500BFF8BC08BC9E4670475F
:040A1800D101000800
:040A1C00AD01000820
:04000005080009697D
:00000001FF
