:020000040800F2
:100000000000032045040008910400089104000842
:100010009104000891040008910400080000000009
:100020000000000000000000000000009104000833
:1000300091040008000000009104000891040008E9
:10004000910400089104000891040008910400083C
:10005000910400089104000891040008910400082C
:10006000910400089104000891040008910400081C
:10007000910400089104000891040008910400080C
:1000800091040008910400089104000891040008FC
:1000900091040008910400089104000891040008EC
:1000A00091040008910400089104000891040008DC
:1000B00091040008910400089104000891040008CC
:1000C00091040008910400089104000891040008BC
:1000D00091040008910400089104000891040008AC
:1000E0000904000891040008910400089104000824
:1000F000910400089104000891040008910400088C
:10010000910400089104000891040008910400087B
:10011000910400089104000891040008910400086B
:10012000910400089104000891040008910400085B
:10013000910400089104000891040008910400084B
:10014000910400089104000891040008910400083B
:10015000910400089104000891040008910400082B
:10016000910400089104000891040008910400081B
:1001700091040008910400089104000800000000A8
:1001800091040008910400089104000891040008FB
:1001900091040008910400089104000891040008EB
:0C01A0009104000891040008910400087C
:1001AC0010B5054C237833B9044B13B10448AFF3A5
:1001BC0000800123237010BD00000020000000000F
:1001CC00DC04000808B5034B1BB103490348AFF32B
:1001DC00008008BD0000000004000020DC040008C2
:1001EC0008B500F039F800F0BDF800F0D3F804E0E1
:1001FC00074A936943F080039361064B1B78002BED
:10020C00F6D1034A936943F400039361F5E700BF09
:10021C00000402401C00002000B500F00700C0F1F3
:10022C00070CBCF1040F28BF4FF0040C031D062B68
:10023C000FD9C31E4FF0FF3E0EFA0CF021EA00015D
:10024C0099400EFA03FE22EA0E0241EA02005DF822
:10025C0004FB0023EEE70000404A136823F0F80388
:10026C0043F080031360002393603C4B9B6813F0B6
:10027C000C0FFAD1394A136823F080731360374B93
:10028C001B6813F0007FFAD1344A136823F410234F
:10029C001360324B1B6813F4003FFAD12F4B1A68D2
:1002AC0022F480221A601A6842F480321A602B4BB6
:1002BC001B6813F4003FFAD0284B1A6822F48022F2
:1002CC001A601A6842F400221A6000225A605A68B6
:1002DC0042F480025A605A6822F03F0242F0040253
:1002EC005A605A686FF38E1242F4B4525A605A68CC
:1002FC0022F440325A601A6842F080721A60174B2E
:10030C001B6813F0007FFAD1144B9A6822F0030299
:10031C0042F002029A609A6822F0F0029A609A689F
:10032C0022F4E05242F4A0529A609A6822F460429D
:10033C0042F400429A609A6822F0605242F00052F5
:10034C009A609A6822F040429A60054A136823F03A
:10035C000F0343F005031360704700BF00380240E1
:10036C00003C0240094A136B43F05E031363084BD5
:10037C001A6842F400221A609A6842F440229A6089
:10038C005A6A22F0F0025A62704700BF00380240ED
:10039C000008024008B5154A536C43F4804353647B
:1003AC00A2F58032536923F0F00343F0200353612C
:1003BC000F4B1A6842F400521A609A6842F40052C9
:1003CC009A60DA6842F40052DA600A4BD86800226C
:1003DC001146C0F30220FFF71FFF0001C0B2064B0D
:1003EC0083F828034FF480725A6008BD003802402D
:1003FC00003C014000ED00E000E100E00B4A137806
:10040C000133DBB213701378DBB2012B08D9084A25
:10041C001378B3FA83F35B091370044B00221A7040
:10042C00044A536943F40053536170471D00002084
:10043C001C000020003C0140DFF830D00C480D4976
:10044C000D4A002302E0D458C4500433C4188C4223
:10045C00F9D30A4A0A4C002301E013600432A24289
:10046C00FBD300F011F8FFF7BBFE70470000032030
:10047C000000002000000020FC0400080000002008
:10048C0020000020FEE7000070B50D4D0D4C641BE4
:10049C00A4100026A64209D10B4D0C4C00F018F804
:1004AC00641BA4100026A64205D170BD55F8043B70
:1004BC0098470136EEE755F8043B98470136F2E7CA
:1004CC00F4040008F4040008F4040008F80400081C
:1004DC00F8B500BFF8BC08BC9E467047F8B500BF25
:0804EC00F8BC08BC9E467047F5
:0404F400D10100082A
:0404F800AD0100084A
:0400000508000445A6
:00000001FF
