:020000040800F2
:100000000000032061090008AD090008AD090008DF
:10001000AD090008AD090008AD09000800000000A6
:10002000000000000000000000000000AD09000812
:10003000AD09000800000000AD09000851090008E2
:10004000AD090008AD090008AD090008AD090008B8
:10005000AD090008AD090008AD090008AD090008A8
:10006000AD090008AD090008AD090008AD09000898
:10007000AD090008AD090008AD090008AD09000888
:10008000AD090008AD090008AD090008AD09000878
:10009000AD090008AD090008AD090008AD09000868
:1000A000AD090008AD090008AD090008AD09000858
:1000B000AD090008AD090008AD090008AD09000848
:1000C000AD090008AD090008AD090008AD09000838
:1000D000AD090008AD090008AD090008AD09000828
:1000E0004D080008AD090008AD090008AD09000879
:1000F000AD090008AD090008AD090008AD09000808
:10010000AD090008AD090008AD090008AD090008F7
:10011000AD090008AD090008AD090008AD090008E7
:10012000AD090008AD090008AD090008AD090008D7
:10013000AD090008AD090008AD090008AD090008C7
:10014000AD090008AD090008AD090008AD090008B7
:10015000AD090008AD090008AD090008AD090008A7
:10016000AD090008AD090008AD090008AD09000897
:10017000AD090008AD090008AD0900080000000045
:10018000AD090008AD090008AD090008AD09000877
:10019000AD090008AD090008AD090008AD09000867
:0C01A000AD090008AD090008AD09000819
:1001AC0010B5054C237833B9044B13B10448AFF3A5
:1001BC0000800123237010BD00000020000000000F
:1001CC00F809000808B5034B1BB103490348AFF30A
:1001DC00008008BD0000000004000020F8090008A1
:1001EC0008B500F053F900F0D5F900F01FFA00F053
:1001FC0057FA01218D4800F073FA02218C4800F067
:10020C006FFA03218B4800F06BFA04218A4800F046
:10021C0067FA0521894800F063FA0621884800F046
:10022C005FFA11E0814800F0BDFA814800F0BAFA9B
:10023C00804800F0B7FA804800F0B4FA7F4800F02C
:10024C00B1FA7F4800F0AEFA7E4B1B7813F0010F29
:10025C0000F088807C4B1B78DBB2062BF4D801A213
:10026C0052F823F0310200088D020008B302000896
:10027C00D9020008FF020008250300084B03000800
:10028C006A4800F059FA6A4800F08CFA694800F0A4
:10029C0089FA694800F086FA684800F083FA6848E1
:1002AC0000F080FAD0E7614800F046FA604800F0B0
:1002BC0043FA604800F076FA5F4800F073FA5F4842
:1002CC0000F070FA5E4800F06DFABDE7574800F098
:1002DC0033FA574800F030FA564800F02DFA5648D9
:1002EC0000F060FA554800F05DFA554800F05AFAF3
:1002FC00AAE74E4800F020FA4D4800F01DFA4D4890
:10030C0000F01AFA4C4800F017FA4C4800F04AFA80
:10031C004B4800F047FA97E7444800F00DFA444880
:10032C0000F00AFA434800F007FA434800F004FAD8
:10033C00424800F001FA424800F034FA84E73B48A6
:10034C0000F0FAF93A4800F0F7F93A4800F0F4F9FD
:10035C00394800F0F1F9394800F0EEF9384800F06E
:10036C00EBF971E7384B1B78DBB2062B3FF66CAF21
:10037C00DFE803F004171B222C3949002B4800F04E
:10038C0011FA2B4800F00EFA2A4800F00BFA2A4812
:10039C0000F008FA294800F005FA294800F002FAA2
:1003AC0052E7224800F034FA4EE7204800F030FAC9
:1003BC001F4800F02DFA47E71C4800F029FA1C48AA
:1003CC0000F026FA1B4800F023FA3DE7174800F02E
:1003DC001FFA174800F01CFA164800F019FA1648D4
:1003EC0000F016FA30E7114800F012FA104800F04D
:1003FC000FFA104800F00CFA0F4800F009FA0F48F9
:10040C0000F006FA20E7094800F002FA084800F06C
:10041C00FFF9084800F0FCF9074800F0F9F9074823
:10042C0000F0F6F9064800F0F3F90DE78000002023
:10043C006C000020580000204400002030000020F8
:10044C001C000020A0000020A100002000B500F03E
:10045C000700C0F1070CBCF1040F28BF4FF0040CCF
:10046C00031D062B0FD9C31E4FF0FF3E0EFA0CF0E6
:10047C0021EA000199400EFA03FE22EA0E0241EA3B
:10048C0002005DF804FB0023EEE700003F4A13680E
:10049C0023F0F80343F080031360002393603B4B7D
:1004AC009B6813F00C0FFAD1384A136823F0807351
:1004BC001360364B1B6813F0007FFAD1334A136874
:1004CC0023F410231360314B1B6813F4003FFAD153
:1004DC002E4B1A6822F480221A601A6842F4803279
:1004EC001A602A4B1B6813F4003FFAD0274B1A688A
:1004FC0022F480221A601A6842F400221A60002248
:10050C005A605A6842F480025A605A6822F03F02DC
:10051C0042F004025A605A686FF38E1242F434525D
:10052C005A605A6822F440325A601A6842F080725B
:10053C001A60164B1B6813F0007FFAD1134B9A68A4
:10054C0022F0030242F002029A609A6822F0F00252
:10055C009A609A6822F4E05242F4A0529A609A6827
:10056C0022F4604242F400429A609A6842F060526F
:10057C009A609A6822F040429A60054A136823F008
:10058C000F0343F005031360704700BF00380240AF
:10059C00003C024010B4204A136B43F05E0313631B
:1005AC001E4B1A6842F4A8021A601D48026842F0F9
:1005BC00100202601B490A6842F010020A601A4AD3
:1005CC00146844F0100414609C6844F47C049C602F
:1005DC00846844F0300484608C6844F030048C608F
:1005EC00946844F0300494605C6824F460645C604B
:1005FC00446824F004044460486820F00400486017
:10060C00516821F0040151601A6822F040621A60AE
:10061C005DF8044B704700BF0038024000080240F0
:10062C00000C0240001802400010024038B5184A75
:10063C00536C43F480435364A2F58032536923F026
:10064C00F00343F020035361124B1A6842F400523A
:10065C001A609A6842F400529A60DA6842F40052C6
:10066C00DA605A6942F400525A610B4C4FF48075AF
:10067C00C4F88451094BD86800220121C0F3022030
:10068C00FFF7E4FE0001C0B284F82803656038BDB2
:10069C0000380240003C014000E100E000ED00E0C9
:1006AC004FF0E0231A6922F001021A611A6942F034
:1006BC0002021A611A6942F004021A615A6902F0C4
:1006CC007F4206490A435A619A6902F07F420A4303
:1006DC009A611A6942F001021A6170471FBF020049
:1006EC00002303610170044B1B68436040F2E2433A
:1006FC008360012303737047A40000200369013356
:10070C0003610C4AA2FB031222F0010101EB52021D
:10071C009B1A012B06D0022B08D053B940F2E243AE
:10072C008360704740F2C7138360704740F2071331
:10073C0083607047ABAAAAAA0378013B052B27D884
:10074C00DFE803F003090F151B21124A936943F4E8
:10075C000073936170470F4A936943F4806393610C
:10076C0070470C4A936943F40063936170470A4ADB
:10077C00936943F0040393617047084A936943F00B
:10078C00040393617047064A936943F00403936131
:10079C00704700BF00080240000C024000180240E5
:1007AC00001002400378013B052B27D8DFE803F04B
:1007BC0003090F151B21124A936943F000739361CF
:1007CC0070470F4A936943F08063936170470C4AFA
:1007DC00936943F00063936170470A4A936943F449
:1007EC00802393617047084A936943F48023936193
:1007FC007047064A936943F480239361704700BFA6
:10080C0000080240000C0240001802400010024098
:10081C0008B50A4B1B6842689B1A82689A4209D831
:10082C00064B1B684360037B83F00103037313B116
:10083C00FFF782FF08BDFFF7B5FFFBE7A400002020
:10084C0008B5324B1A68324B1B68D31A312B14D9AA
:10085C002F4B1A602F4B1B6913F4005F13D02E4BD8
:10086C001B7823B92C4B012119702C4B1A602C4A84
:10087C00536943F40053536108BD294A536943F447
:10088C0000535361F8E7244B1B78002BEFD0224B1D
:10089C0000211970214B1B68D21AB2F5FA6F0AD2DB
:1008AC00204A13780133DBB213701378DBB2062BBA
:1008BC00DDD91170DBE7B2F57A6F21D2194B1B78B9
:1008CC00013B052BD3D8DFE803F003070B0F1317FD
:1008DC001548FFF713FFCAE71448FFF70FFFC6E7E9
:1008EC001348FFF70BFFC2E71248FFF707FFBEE7FD
:1008FC001148FFF703FFBAE71048FFF7FFFEB6E712
:10090C000F4A13780133DBB21370B0E7A400002058
:10091C009C00002000080240980000209400002059
:10092C00003C0140A1000020800000206C00002051
:10093C005800002044000020300000201C00002043
:10094C00A0000020024A136801331360704700BFF7
:10095C00A4000020DFF830D00C480D490D4A0023CC
:10096C0002E0D458C4500433C4188C42F9D30A4A58
:10097C000A4C002301E013600432A242FBD300F0C6
:10098C0011F8FFF72DFC7047000003200000002039
:10099C0000000020180A000800000020A800002019
:1009AC00FEE7000070B50D4D0D4C641BA410002625
:1009BC00A64209D10B4D0C4C00F018F8641BA41086
:1009CC000026A64205D170BD55F8043B9847013668
:1009DC00EEE755F8043B98470136F2E7100A000899
:1009EC00100A0008100A0008140A0008F8B500BF25
:1009FC00F8BC08BC9E467047F8B500BFF8BC08BCF4
:040A0C009E4670474B
:040A1000D101000808
:040A1400AD01000828
:040000050800096185
:00000001FF
