:020000040800F2
:1000000000000320DD03000829040008290400087B
:100010002904000829040008290400080000000041
:10002000000000000000000000000000290400089B
:100030002904000800000000290400082904000821
:1000400029040008290400082904000829040008DC
:1000500029040008290400082904000829040008CC
:1000600029040008290400082904000829040008BC
:1000700029040008290400082904000829040008AC
:10008000290400082904000829040008290400089C
:10009000290400082904000829040008290400088C
:1000A000290400082904000829040008290400087C
:1000B000290400082904000829040008290400086C
:1000C000290400082904000829040008290400085C
:1000D000290400082904000829040008290400084C
:1000E000290400082904000829040008290400083C
:1000F000290400082904000829040008290400082C
:10010000290400082904000829040008290400081B
:10011000290400082904000829040008290400080B
:1001200029040008290400082904000829040008FB
:1001300029040008290400082904000829040008EB
:1001400029040008290400082904000829040008DB
:1001500029040008290400082904000829040008CB
:1001600029040008290400082904000829040008BB
:1001700029040008290400082904000800000000E0
:10018000290400082904000829040008290400089B
:10019000290400082904000829040008290400088B
:0C01A000290400082904000829040008B4
:1001AC0010B5054C237833B9044B13B10448AFF3A5
:1001BC0000800123237010BD00000020000000000F
:1001CC007404000808B5034B1BB103490348AFF393
:1001DC00008008BD0000000004000020740400082A
:1001EC0030B583B000F090F800252C4615E0651B67
:1001FC0018BF012500954FF400734FF480724FF433
:10020C0080214FF4803000F0BBF84FF400028021C5
:10021C004FF4806000F0CAF825464FF4006000F0FF
:10022C009DF808B1013464B2052C66D801A353F8CB
:10023C0024F000BFC9020008FB01000859020008A5
:10024C0089020008B7020008C9020008651B18BF24
:10025C00012500954FF480634FF480724FF48011A8
:10026C004FF4803000F08CF84FF080424FF4804116
:10027C004FF4007000F09AF82546CEE7651B18BFC6
:10028C00012500954FF480634FF400724FF48011F8
:10029C004FF4802000F074F84FF4803201214FF4B9
:1002AC00807000F083F82546B7E7AC42B5D0154A0C
:1002BC00136843F4803313602546AEE7AC4205D097
:1002CC00104A136823F47C13136025464FF4000284
:1002DC0080214FF4806000F069F84FF080424FF4B9
:1002EC0080414FF4007000F061F84FF4803201212E
:1002FC004FF4807000F05AF88FE7052C8DDD012447
:10030C008BE700BF000802400F4A136B43F0060353
:10031C0013630E4B1A6822F47F021A600C4A1068A1
:10032C000C490140116010680B49014311605A6877
:10033C0022F4E0625A609A6842F4AA029A60DA687F
:10034C0042F4AA02DA60704700380240000802400A
:10035C0000040240FC3FFFCF014000100146002387
:10036C00184602E0013B002B06DD044A12690A42E2
:10037C00F8D101330120F6E7704700BF00080240B6
:10038C0030B49DF8084064B1074C256825F47C1501
:10039C0025602568084328432060A1691A430A4355
:1003AC00A26130BC704700BF00080240064B1B69BD
:1003BC00034204D1054A93690B4393617047034987
:1003CC008B6913438B6170470008024000040240A4
:1003DC00DFF830D00C480D490D4A002302E0D45808
:1003EC00C4500433C4188C42F9D30A4A0A4C002373
:1003FC0001E013600432A242FBD300F011F8FFF7C6
:10040C00EFFE7047000003200000002000000020D9
:10041C0094040008000000201C000020FEE70000EF
:10042C0070B50D4D0D4C641BA4100026A64209D1CD
:10043C000B4D0C4C00F018F8641BA4100026A642BF
:10044C0005D170BD55F8043B98470136EEE755F8D9
:10045C00043B98470136F2E78C0400088C04000832
:10046C008C04000890040008F8B500BFF8BC08BC68
:10047C009E467047F8B500BFF8BC08BC9E46704756
:04048C00D101000892
:04049000AD010008B2
:04000005080003DD0F
:00000001FF
