:020000040800F2
:1000000000000320B90500080506000805060008E1
:1000100005060008050600080506000800000000A7
:1000200000000000000000000000000005060008BD
:100030000506000800000000050600080506000887
:100040000506000805060008050600080506000864
:100050000506000805060008050600080506000854
:100060000506000805060008050600080506000844
:100070000506000805060008050600080506000834
:100080000506000805060008050600080506000824
:100090000506000805060008050600080506000814
:1000A0000506000805060008050600080506000804
:1000B00005060008050600080506000805060008F4
:1000C00005060008050600080506000805060008E4
:1000D00005060008050600080506000805060008D4
:1000E00005060008050600080506000805060008C4
:1000F00005060008050600080506000805060008B4
:1001000005060008050600080506000805060008A3
:100110000506000805060008050600080506000893
:100120000506000805060008050600080506000883
:100130000506000805060008050600080506000873
:100140000506000805060008050600080506000863
:100150000506000805060008050600080506000853
:100160000506000805060008050600080506000843
:100170000506000805060008050600080000000046
:100180000506000805060008050600080506000823
:100190000506000805060008050600080506000813
:0C01A0000506000805060008050600081A
:1001AC0010B5054C237833B9044B13B10448AFF3A5
:1001BC0000800123237010BD00000020000000000F
:1001CC005006000808B5034B1BB103490348AFF3B5
:1001DC00008008BD0000000004000020500600084C
:1001EC0008B500F003F800F0F7F8FCE73B4A136B96
:1001FC0043F05E0313633A4BD3F8002822F4400219
:10020C00C3F80028D3F8042822F40062C3F80428A9
:10021C00D3F8082842F48001C3F8081822F400022D
:10022C0042F48002C3F80828D3F80C2842F4800169
:10023C00C3F80C1822F4000242F48002C3F80C2814
:10024C00D3F8002C22F03002C3F8002CD3F8042C85
:10025C0022F00402C3F8042CD3F8082C42F010024C
:10026C00C3F8082CD3F80C2C42F01002C3F80C2C59
:10027C001C4A136823F0300313601B4B196821F0E0
:10028C0030011960516821F004015160596821F066
:10029C0004015960916841F010019160996841F036
:1002AC0010019960D16841F01001D160DA6842F018
:1002BC001002DA60A3F5406319680C4A0A401A6010
:1002CC001A680B490A431A605A6822F4814222F0D8
:1002DC0001025A609A680A439A60704700380240DB
:1002EC00000002400018024000100240FC3FFFCF0B
:1002FC000140001084460023184602E0013B002B0D
:10030C0008DDDCF810200A42F8D101330120024A42
:10031C001070F4E7704700BF2400002030B49DF843
:10032C001040F4B1104D2C6824F030042C6005F50D
:10033C0040652C6824F030042C60A5F500652C6811
:10034C0024F030042C600468224302600A681343D2
:10035C000B608369029A134383618B69039A13437D
:10036C008B6130BC704700BF000C02400069084232
:10037C0014D115498B6913438B61802A06D0B2F5D1
:10038C00804F07D0114B01221A707047104B01227D
:10039C001A7070470F4B01221A707047802A0AD0CE
:1003AC00B2F5804F0BD0094A0021117006498A69B9
:1003BC0013438B617047064A00211170F6E7054A1A
:1003CC0000211170F2E700BF000402401E00002063
:1003DC001F0000202000002030B585B04FF40061D4
:1003EC006848FFF787FF18B1674A13780133137019
:1003FC00664B00221A70644B93F90030052B00F207
:10040C00B980DFE803F08103274B6D81604D95F9CE
:10041C000020D31A18BF01230293042401940094E2
:10042C0010231A465B495C48FFF778FF5B4B0022B0
:10043C001A7001235A4A13705A4A1370524B1B7884
:10044C002B704FF40003802221465748FFF78EFF94
:10045C0005B030BD4E4D95F90020D31A18BF0123BD
:10046C00029304240194009410231A4649494E48DF
:10047C00FFF754FF0123494A1370494A00211170B8
:10048C00484A1370404B1B782B704FF080434FF44D
:10049C00804221464048FFF769FFD9E73C4D95F96A
:1004AC000020D31A18BF0123029304240194009452
:1004BC0010231A4638493C48FFF730FF0122374BCE
:1004CC001A70374B1A70374B002119702E4B1B7852
:1004DC002B704FF4803321462E48FFF747FFB7E7C8
:1004EC002B4A92F900209342B2D02A490A6842F072
:1004FC0010020A60012229490A7029490A70294907
:10050C000A70234A1370A3E7214A92F90020934200
:10051C0019D025490A6822F030020A6001F54061C1
:10052C000A6822F030020A60A1F500610A6822F024
:10053C0030020A60002219490A7019490A701949D7
:10054C000A70134A13704FF40003802204211648DA
:10055C00FFF70CFF4FF080434FF4804204210E480C
:10056C00FFF704FF4FF48033012204210948FFF701
:10057C00FDFE6DE7052B7FF76BAF034B01221A7065
:10058C0066E700BF000802401D0000202400002088
:10059C001C00002000100240001802402300002024
:1005AC002200002021000020000C0240DFF830D097
:1005BC000C480D490D4A002302E0D458C4500433B2
:1005CC00C4188C42F9D30A4A0A4C002301E0136088
:1005DC000432A242FBD300F011F8FFF701FE704782
:1005EC00000003200000002000000020700600081E
:1005FC000000002028000020FEE7000070B50D4D23
:10060C000D4C641BA4100026A64209D10B4D0C4CBA
:10061C0000F018F8641BA4100026A64205D170BD8A
:10062C0055F8043B98470136EEE755F8043B9847DC
:10063C000136F2E76806000868060008680600083C
:10064C006C060008F8B500BFF8BC08BC9E467047A5
:0C065C00F8B500BFF8BC08BC9E46704713
:04066800D1010008B4
:04066C00AD010008D4
:04000005080005B931
:00000001FF
