:020000040800F2
:1000000000000320D10300081D0400081D0400089F
:100010001D0400081D0400081D0400080000000065
:100020000000000000000000000000001D040008A7
:100030001D040008000000001D0400081D04000845
:100040001D0400081D0400081D0400081D0400080C
:100050001D0400081D0400081D0400081D040008FC
:100060001D0400081D0400081D0400081D040008EC
:100070001D0400081D0400081D0400081D040008DC
:100080001D0400081D0400081D0400081D040008CC
:100090001D0400081D0400081D0400081D040008BC
:1000A0001D0400081D0400081D0400081D040008AC
:1000B0001D0400081D0400081D0400081D0400089C
:1000C0001D0400081D0400081D0400081D0400088C
:1000D0001D0400081D0400081D0400081D0400087C
:1000E0001D0400081D0400081D0400081D0400086C
:1000F0001D0400081D0400081D0400081D0400085C
:100100001D0400081D0400081D0400081D0400084B
:100110001D0400081D0400081D0400081D0400083B
:100120001D0400081D0400081D0400081D0400082B
:100130001D0400081D0400081D0400081D0400081B
:100140001D0400081D0400081D0400081D0400080B
:100150001D0400081D0400081D0400081D040008FB
:100160001D0400081D0400081D0400081D040008EB
:100170001D0400081D0400081D0400080000000004
:100180001D0400081D0400081D0400081D040008CB
:100190001D0400081D0400081D0400081D040008BB
:0C01A0001D0400081D0400081D040008D8
:1001AC0010B5054C237833B9044B13B10448AFF3A5
:1001BC0000800123237010BD00000020000000000F
:1001CC006804000808B5034B1BB103490348AFF39F
:1001DC00008008BD00000000040000206804000836
:1001EC00064B1B69034204D1054A93690B43936187
:1001FC00704703498B6913438B61704700080240B9
:10020C000004024030B583B000F08AF800252C467B
:10021C0015E0651B18BF012500954FF400734FF4D2
:10022C0080724FF480214FF4803000F0B5F84FF419
:10023C00000280214FF48060FFF7D2FF25464FF477
:10024C00006000F097F808B1013464B2012CE0D0E2
:10025C00022C0BD0032C21D0042C36D0052C3DD0F5
:10026C00631EDBB2042BEAD90124E8E7651B18BF37
:10027C00012500954FF480634FF480724FF4801188
:10028C004FF4803000F088F84FF080424FF48041FA
:10029C004FF40070FFF7A4FF2546D0E7651B18BF8D
:1002AC00012500954FF480634FF400724FF48011D8
:1002BC004FF4802000F070F84FF4803201214FF49D
:1002CC008070FFF78DFF2546B9E7AC42B7D0134AD3
:1002DC00136843F4803313602546B0E7AC4205D075
:1002EC000E4A136823F47C13136025464FF4000266
:1002FC0080214FF48060FFF773FF4FF080424FF482
:10030C0080414FF40070FFF76BFF4FF480320121F6
:10031C004FF48070FFF764FF91E700BF00080240C4
:10032C000F4A136B43F0060313630E4B1A6822F447
:10033C007F021A600C4A10680C4901401160106869
:10034C000B49014311605A6822F4E0625A609A68C2
:10035C0042F4AA029A60DA6842F4AA02DA607047A0
:10036C00003802400008024000040240FC3FFFCF6E
:10037C000140001001460023184602E0013B002B0F
:10038C0006DD044A12690A42F8D101330120F6E76E
:10039C00704700BF0008024030B49DF8084064B1BB
:1003AC00074C256825F47C152560256808432843EF
:1003BC002060A1691A430A43A26130BC704700BF98
:1003CC0000080240DFF830D00C480D490D4A0023DC
:1003DC0002E0D458C4500433C4188C42F9D30A4AEE
:1003EC000A4C002301E013600432A242FBD300F05C
:1003FC0011F8FFF707FF70470000032000000020F2
:10040C000000002088040008000000201C000020D0
:10041C00FEE7000070B50D4D0D4C641BA4100026BA
:10042C00A64209D10B4D0C4C00F018F8641BA4101B
:10043C000026A64205D170BD55F8043B98470136FD
:10044C00EEE755F8043B98470136F2E780040008C4
:10045C00800400088004000884040008F8B500BF7C
:10046C00F8BC08BC9E467047F8B500BFF8BC08BC89
:04047C009E467047E1
:04048000D10100089E
:04048400AD010008BE
:04000005080003D11B
:00000001FF
