:020000040800F2
:100000000000032035040008810400088104000872
:100010008104000881040008810400080000000039
:100020000000000000000000000000008104000843
:100030008104000800000000810400088104000819
:10004000810400088104000881040008810400087C
:10005000810400088104000881040008810400086C
:10006000810400088104000881040008810400085C
:10007000810400088104000881040008810400084C
:10008000810400088104000881040008810400083C
:10009000810400088104000881040008810400082C
:1000A000810400088104000881040008810400081C
:1000B000810400088104000881040008810400080C
:1000C00081040008810400088104000881040008FC
:1000D00081040008810400088104000881040008EC
:1000E00081040008810400088104000881040008DC
:1000F00081040008810400088104000881040008CC
:1001000081040008810400088104000881040008BB
:1001100081040008810400088104000881040008AB
:10012000810400088104000881040008810400089B
:10013000810400088104000881040008810400088B
:10014000810400088104000881040008810400087B
:10015000810400088104000881040008810400086B
:10016000810400088104000881040008810400085B
:1001700081040008810400088104000800000000D8
:10018000810400088104000881040008810400083B
:10019000810400088104000881040008810400082B
:0C01A000810400088104000881040008AC
:1001AC0010B5054C237833B9044B13B10448AFF3A5
:1001BC0000800123237010BD04000020000000000B
:1001CC00CC04000808B5034B1BB103490348AFF33B
:1001DC00008008BD0000000008000020CC040008CE
:1001EC0008B500F003F800F079F8FCE7214AD2F8E2
:1001FC00303843F00203C2F8303802F50062136B5A
:10020C0043F0040313631C4B1A6822F47F021A6038
:10021C005A6822F4E0625A609A6842F4AA029A6020
:10022C00DA6842F4AA02DA60144AD2F8003443F0D5
:10023C000101C2F8001443F0805343F00103C2F8EB
:10024C000034D2F8083443F08053C2F808340C4B15
:10025C001A6822F440421A601A6842F480421A600A
:10026C005A6822F080025A609A6842F480429A607E
:10027C00704700BF003002400008024000000240FE
:10028C000004024001460023184602E0013B002B0B
:10029C0006DD044A12690A42F8D101330120F6E75F
:1002AC00704700BF0008024010B44FF0000C05E08E
:1002BC00094CA3690B43A3610CF1010C6045F7DCFD
:1002CC00002104E00448836913438361013113293D
:1002DC00F8DD5DF8044B70470004024008B54FF49C
:1002EC000060FFF7CFFF18B14A4A1378013313703F
:1002FC00484B1B78032B02D9464B01221A704FF442
:10030C008070FFF7BFFF18B1434A137801331370A5
:10031C004FF40070FFF7B6FF18B1404A1378013361
:10032C0013704FF48060FFF7ADFF18B13C4A13789F
:10033C0001331370384B1B7813F0010F19D0354B68
:10034C001B78012B07D0022B0CD0364A936943F053
:10035C008003936112E04FF4000280210120FFF72B
:10036C00A3FF0BE04FF4000280210C20FFF79CFF51
:10037C0004E02C4A936943F400039361274B1B78E8
:10038C0013F0010F1BD0234B1B78012B07D0022B32
:10039C000DD0244A936943F48043936114E04FF0E9
:1003AC0080424FF480410120FFF77EFF0CE04FF0BC
:1003BC0080424FF480410C20FFF776FF04E0194A8D
:1003CC00936943F080439361154B1B7813F0010F35
:1003DC0019D0104B1B78012B07D0022B0CD0114AD3
:1003EC00936943F00103936112E04FF480320121D1
:1003FC000620FFF759FF0BE04FF4803201210F204C
:10040C00FFF752FF04E0074A936943F4803393618A
:10041C0008BD00BF000000202200002021000020A9
:10042C002000002000040240DFF830D00C480D49B9
:10043C000D4A002302E0D458C4500433C4188C4233
:10044C00F9D30A4A0A4C002301E013600432A24299
:10045C00FBD300F011F8FFF7C3FE70470000032038
:10046C000000002004000020EC0400080400002020
:10047C0024000020FEE7000070B50D4D0D4C641BF0
:10048C00A4100026A64209D10B4D0C4C00F018F814
:10049C00641BA4100026A64205D170BD55F8043B80
:1004AC0098470136EEE755F8043B98470136F2E7DA
:1004BC00E4040008E4040008E4040008E80400086C
:1004CC00F8B500BFF8BC08BC9E467047F8B500BF35
:0804DC00F8BC08BC9E46704705
:0404E400D10100083A
:0404E800AD0100085A
:0404EC00010000000B
:0400000508000435B6
:00000001FF
