:020000040800F2
:1000000000000320DD07000829080008290800086F
:100010002908000829080008290800080000000035
:100020000000000000000000000000002908000897
:10003000290800080000000029080008CD07000872
:1000400029080008290800082908000829080008CC
:1000500029080008290800082908000829080008BC
:1000600029080008290800082908000829080008AC
:10007000290800082908000829080008290800089C
:10008000290800082908000829080008290800088C
:10009000290800082908000829080008290800087C
:1000A000290800082908000829080008290800086C
:1000B000290800082908000829080008290800085C
:1000C000290800082908000829080008290800084C
:1000D000290800082908000829080008290800083C
:1000E000B1060008290800082908000829080008A6
:1000F000290800082908000829080008290800081C
:10010000290800082908000829080008290800080B
:1001100029080008290800082908000829080008FB
:1001200029080008290800082908000829080008EB
:1001300029080008290800082908000829080008DB
:1001400029080008290800082908000829080008CB
:1001500029080008290800082908000829080008BB
:1001600029080008290800082908000829080008AB
:1001700029080008290800082908000800000000D4
:10018000290800082908000829080008290800088B
:10019000290800082908000829080008290800087B
:0C01A000290800082908000829080008A8
:1001AC0010B5054C237833B9044B13B10448AFF3A5
:1001BC0000800123237010BD00000020000000000F
:1001CC007408000808B5034B1BB103490348AFF38F
:1001DC00008008BD00000000040000207408000826
:1001EC0030B587B000F084F800F006F900F050F953
:1001FC0000F088F96C462B4D0FCD0FC495E8030029
:10020C0084E8030001240AE0631E06AA02EB8303C0
:10021C00214653F8180C00F095F90134E4B2062C81
:10022C00F2D9214B1B7813F0010F2AD11F4B1B78ED
:10023C004BB301241D4B1B78DBB2A342F1D3631EDD
:10024C0006AA02EB830353F8180C00F013FA0134DE
:10025C00E4B2EFE706AB03EB840353F8180C00F0A1
:10026C00D3F90134052CDCDC104B1B78DBB2A34238
:10027C00F0DD06AB03EB840353F8180C00F08EF999
:10028C00EFE70024EEE70124062CCAD8631E06AA69
:10029C0002EB830353F8180C00F0B6F90134E4B206
:1002AC00F2E700BF8C0800089D0000209F00002092
:1002BC0000B500F00700C0F1070CBCF1040F28BF1B
:1002CC004FF0040C031D062B0FD9C31E4FF0FF3E3D
:1002DC000EFA0CF021EA000199400EFA03FE22EA14
:1002EC000E0241EA02005DF804FB0023EEE7000079
:1002FC003F4A136823F0F80343F080031360002394
:10030C0093603B4B9B6813F00C0FFAD1384A13687F
:10031C0023F080731360364B1B6813F0007FFAD107
:10032C00334A136823F410231360314B1B6813F406
:10033C00003FFAD12E4B1A6822F480221A601A68F8
:10034C0042F480321A602A4B1B6813F4003FFAD037
:10035C00274B1A6822F480221A601A6842F4002291
:10036C001A6000225A605A6842F480025A605A6835
:10037C0022F03F0242F004025A605A686FF38E1268
:10038C0042F434525A605A6822F440325A601A6865
:10039C0042F080721A60164B1B6813F0007FFAD182
:1003AC00134B9A6822F0030242F002029A609A6898
:1003BC0022F0F0029A609A6822F4E05242F4A052C1
:1003CC009A609A6822F4604242F400429A609A68F9
:1003DC0042F060529A609A6822F040429A60054A54
:1003EC00136823F00F0343F005031360704700BF3D
:1003FC0000380240003C024010B4204A136B43F01A
:10040C005E0313631E4B1A6842F4A8021A601D485F
:10041C00026842F0100202601B490A6842F01002A6
:10042C000A601A4A146844F0100414609C6844F47E
:10043C007C049C60846844F0300484608C6844F0D4
:10044C0030048C60946844F0300494605C6824F44C
:10045C0060645C60446824F004044460486820F0E4
:10046C0004004860516821F0040151601A6822F0C0
:10047C0040621A605DF8044B704700BF00380240C0
:10048C0000080240000C024000180240001002401C
:10049C0038B5184A536C43F480435364A2F5803248
:1004AC00536923F0F00343F020035361124B1A6895
:1004BC0042F400521A609A6842F400529A60DA6868
:1004CC0042F40052DA605A6942F400525A610B4C01
:1004DC004FF48075C4F88451094BD868002201216F
:1004EC00C0F30220FFF7E4FE0001C0B284F8280339
:1004FC00656038BD00380240003C014000E100E07E
:10050C0000ED00E04FF0E0231A6922F001021A61BD
:10051C001A6942F002021A611A6942F004021A6165
:10052C005A6902F07F4206490A435A619A6902F0FD
:10053C007F420A439A611A6942F001021A617047BC
:10054C001FBF0200002303610170044B1B68436052
:10055C0040F2E2438360012303737047A000002044
:10056C000369013303610C4AA2FB031222F001015F
:10057C0001EB52029B1A012B06D0022B08D053B967
:10058C0040F2E2438360704740F2C71383607047C8
:10059C0040F2071383607047ABAAAAAA0378013B09
:1005AC00052B27D8DFE803F003090F151B21124A8E
:1005BC00936943F40073936170470F4A936943F452
:1005CC008063936170470C4A936943F400639361B1
:1005DC0070470A4A936943F0040393617047084AD1
:1005EC00936943F0040393617047064A936943F09F
:1005FC0004039361704700BF00080240000C0240E6
:10060C0000180240001002400378013B052B27D84C
:10061C00DFE803F003090F151B21124A936943F01D
:10062C000073936170470F4A936943F08063936141
:10063C0070470C4A936943F00063936170470A4A10
:10064C00936943F4802393617047084A936943F498
:10065C00802393617047064A936943F48023936126
:10066C00704700BF00080240000C02400018024016
:10067C000010024008B50A4B1B6842689B1A82683E
:10068C009A4209D8064B1B684360037B83F0010335
:10069C00037313B1FFF782FF08BDFFF7B5FFFBE74C
:1006AC00A000002008B5374B1A68374B1B68D31ACB
:1006BC00312B14D9344B1A60344B1B6913F4005F83
:1006CC0013D0334B1B7823B9314B01211970314BAB
:1006DC001A60314A536943F40053536108BD2E4AE2
:1006EC00536943F400535361F8E7294B1B78002BF3
:1006FC00EFD0274B00211970264B1B68D21AB2F58C
:10070C00FA6F0AD2254A13780133DBB213701378CF
:10071C00DBB2062BDDD91170DBE7B2F57A6F2BD289
:10072C001F4B1B7813F0010FD3D11C4B1B78013BD3
:10073C00052B07D8DFE803F0030C1014181C19481C
:10074C00FFF70EFF184A13780133DBB21370C0E7C2
:10075C001648FFF705FFF5E71548FFF701FFF1E72E
:10076C001448FFF7FDFEEDE71348FFF7F9FEE9E744
:10077C001248FFF7F5FEE5E7094A13780133DBB2BF
:10078C001370A6E7A000002098000020000802408B
:10079C009C00002094000020003C01409F000020A1
:1007AC009D000020800000209E0000206C00002096
:1007BC005800002044000020300000201C000020C5
:1007CC00024A136801331360704700BFA000002079
:1007DC00DFF830D00C480D490D4A002302E0D45804
:1007EC00C4500433C4188C42F9D30A4A0A4C00236F
:1007FC0001E013600432A242FBD300F011F8FFF7C2
:10080C00EFFC7047000003200000002000000020D7
:10081C00AC08000800000020A4000020FEE7000047
:10082C0070B50D4D0D4C641BA4100026A64209D1C9
:10083C000B4D0C4C00F018F8641BA4100026A642BB
:10084C0005D170BD55F8043B98470136EEE755F8D5
:10085C00043B98470136F2E7A4080008A4080008F6
:10086C00A4080008A8080008F8B500BFF8BC08BC2C
:10087C009E467047F8B500BFF8BC08BC9E46704752
:10088C00800000206C000020580000204400002054
:08089C00300000201C000020C8
:0408A400D101000876
:0408A800AD01000896
:04000005080007DD0B
:00000001FF
