:020000040800F2
:1000000000000320AD050008F9050008F905000807
:10001000F9050008F9050008F905000800000000CE
:10002000000000000000000000000000F9050008CA
:10003000F905000800000000F9050008F9050008AE
:10004000F9050008F9050008F9050008F905000898
:10005000F9050008F9050008F9050008F905000888
:10006000F9050008F9050008F9050008F905000878
:10007000F9050008F9050008F9050008F905000868
:10008000F9050008F9050008F9050008F905000858
:10009000F9050008F9050008F9050008F905000848
:1000A000F9050008F9050008F9050008F905000838
:1000B000F9050008F9050008F9050008F905000828
:1000C000F9050008F9050008F9050008F905000818
:1000D000F9050008F9050008F9050008F905000808
:1000E000F9050008F9050008F9050008F9050008F8
:1000F000F9050008F9050008F9050008F9050008E8
:10010000F9050008F9050008F9050008F9050008D7
:10011000F9050008F9050008F9050008F9050008C7
:10012000F9050008F9050008F9050008F9050008B7
:10013000F9050008F9050008F9050008F9050008A7
:10014000F9050008F9050008F9050008F905000897
:10015000F9050008F9050008F9050008F905000887
:10016000F9050008F9050008F9050008F905000877
:10017000F9050008F9050008F9050008000000006D
:10018000F9050008F9050008F9050008F905000857
:10019000F9050008F9050008F9050008F905000847
:0C01A000F9050008F9050008F905000841
:1001AC0010B5054C237833B9044B13B10448AFF3A5
:1001BC0000800123237010BD00000020000000000F
:1001CC004406000808B5034B1BB103490348AFF3C1
:1001DC00008008BD00000000040000204406000858
:1001EC0008B500F003F800F0F1F8FCE73B4A136B9C
:1001FC0043F05E0313633A4BD3F8002822F4400219
:10020C00C3F80028D3F8042822F40062C3F80428A9
:10021C00D3F8082842F48001C3F8081822F400022D
:10022C0042F48002C3F80828D3F80C2842F4800169
:10023C00C3F80C1822F4000242F48002C3F80C2814
:10024C00D3F8002C22F03002C3F8002CD3F8042C85
:10025C0022F00402C3F8042CD3F8082C42F010024C
:10026C00C3F8082CD3F80C2C42F01002C3F80C2C59
:10027C001C4A136823F0300313601B4B196821F0E0
:10028C0030011960516821F004015160596821F066
:10029C0004015960916841F010019160996841F036
:1002AC0010019960D16841F01001D160DA6842F018
:1002BC001002DA60A3F5406319680C4A0A401A6010
:1002CC001A680B490A431A605A6822F4814222F0D8
:1002DC0001025A609A680A439A60704700380240DB
:1002EC00000002400018024000100240FC3FFFCF0B
:1002FC000140001084460023184602E0013B002B0D
:10030C0008DDDCF810200A42F8D101330120024A42
:10031C001070F4E7704700BF2400002030B49DF843
:10032C001040F4B1114D2C6824F030042C6005F50C
:10033C0040652C6824F030042C60A5F500652C6811
:10034C0024F030042C600468224302600A681343D2
:10035C000B608369029A134383618B69039A13437D
:10036C008B61034B01221A7030BC7047000C0240A9
:10037C001E000020006908420FD111498B691343FC
:10038C008B61B2F5804F04D0012A0FD10D4B1A703E
:10039C0070470D4B01221A707047B2F5804F06D092
:1003AC00012A08D006498A6913438B617047064AB3
:1003BC0000211170F6E7034A00211170F2E700BF2B
:1003CC00000402401F0000202000002030B585B042
:1003DC004FF400616848FFF78DFF18B1674A137836
:1003EC0001331370664B00221A70644B93F9003082
:1003FC00052B00F2B980DFE803F08103274B6D81F8
:10040C00604D95F90020D31A18BF012302930424E0
:10041C000194009410231A465B495C48FFF77EFF59
:10042C005B4B00221A7001235A4A13705A4A1370FC
:10043C00524B1B782B704FF40003802221465748F7
:10044C00FFF798FF05B030BD4E4D95F90020D31A3B
:10045C0018BF0123029304240194009410231A461C
:10046C0049494E48FFF75AFF0123494A1370494A3C
:10047C0000211170484A1370404B1B782B704FF0C1
:10048C0080434FF4804221464048FFF773FFD9E781
:10049C003C4D95F90020D31A18BF01230293042474
:1004AC000194009410231A4638493C48FFF736FF54
:1004BC000122374B1A70374B1A70374B00211970C9
:1004CC002E4B1B782B704FF4803321462E48FFF7B0
:1004DC0051FFB7E72B4A92F900209342B2D02A4938
:1004EC000A6842F010020A60012229490A7029495F
:1004FC000A7029490A70234A1370A3E7214A92F91A
:10050C000020934219D025490A6822F030020A6073
:10051C0001F540610A6822F030020A60A1F5006121
:10052C000A6822F030020A60002219490A7019493F
:10053C000A7019490A70134A13704FF40003802291
:10054C0004211648FFF716FF4FF080434FF480420A
:10055C0004210E48FFF70EFF4FF4803301220421D3
:10056C000948FFF707FF6DE7052B7FF76BAF034BD0
:10057C0001221A7066E700BF000802401D0000202F
:10058C00240000201C000020001002400018024033
:10059C00230000202200002021000020000C02403B
:1005AC00DFF830D00C480D490D4A002302E0D45836
:1005BC00C4500433C4188C42F9D30A4A0A4C0023A1
:1005CC0001E013600432A242FBD300F011F8FFF7F4
:1005DC0007FE7047000003200000002000000020F0
:1005EC00640600080000002028000020FEE7000040
:1005FC0070B50D4D0D4C641BA4100026A64209D1FC
:10060C000B4D0C4C00F018F8641BA4100026A642ED
:10061C0005D170BD55F8043B98470136EEE755F807
:10062C00043B98470136F2E75C0600085C060008BC
:10063C005C06000860060008F8B500BFF8BC08BCF2
:10064C009E467047F8B500BFF8BC08BC9E46704784
:04065C00D1010008C0
:04066000AD010008E0
:04000005080005AD3D
:00000001FF
