:020000040800F2
:1000000000000320250400087104000871040008A2
:100010007104000871040008710400080000000069
:100020000000000000000000000000007104000853
:100030007104000800000000710400087104000849
:1000400071040008710400087104000871040008BC
:1000500071040008710400087104000871040008AC
:10006000710400087104000871040008710400089C
:10007000710400087104000871040008710400088C
:10008000710400087104000871040008710400087C
:10009000710400087104000871040008710400086C
:1000A000710400087104000871040008710400085C
:1000B000710400087104000871040008710400084C
:1000C000710400087104000871040008710400083C
:1000D000710400087104000871040008710400082C
:1000E000710400087104000871040008710400081C
:1000F000710400087104000871040008710400080C
:1001000071040008710400087104000871040008FB
:1001100071040008710400087104000871040008EB
:1001200071040008710400087104000871040008DB
:1001300071040008710400087104000871040008CB
:1001400071040008710400087104000871040008BB
:1001500071040008710400087104000871040008AB
:10016000710400087104000871040008710400089B
:100170007104000871040008710400080000000008
:10018000710400087104000871040008710400087B
:10019000710400087104000871040008710400086B
:0C01A000710400087104000871040008DC
:1001AC0010B5054C237833B9044B13B10448AFF3A5
:1001BC0000800123237010BD00000020000000000F
:1001CC00BC04000808B5034B1BB103490348AFF34B
:1001DC00008008BD0000000004000020BC040008E2
:1001EC0070B582B000F096F800252C4616E0651B21
:1001FC0018BF012500954FF400734FF480724FF433
:10020C0080214FF4803000F0E1F84FF4000380229D
:10021C004FF480613E4800F0EFF825464FF4006043
:10022C0000F0C2F808B1013464B2052C6BD801A3FC
:10023C0053F824F0CD020008FB0100085902000815
:10024C008B020008BB020008CD020008651B18BF1A
:10025C00012500954FF480634FF480724FF48011A8
:10026C004FF4803000F0B2F84FF080434FF48042EE
:10027C004FF40071264800F0BFF82546CEE7651B09
:10028C0018BF012500954FF480634FF400724FF4B2
:10029C0080114FF4802000F099F84FF48033012244
:1002AC004FF480711A4800F0A7F82546B6E7AC4227
:1002BC00B4D0174A136843F4803313602546ADE776
:1002CC00AC4205D0124A136823F47C131360254604
:1002DC000F4E4FF4000380224FF48061304600F043
:1002EC008BF84FF080434FF480424FF4007130464E
:1002FC0000F082F84FF4803301224FF480713046C5
:10030C0000F07AF88AE7052C88DD012486E700BF27
:10031C0000080240224AD2F8303843F00203C2F8F7
:10032C00303802F50062136B43F004031363A2F53B
:10033C006052D2F8003443F00101C2F8001443F0CB
:10034C00805343F00103C2F80034D2F8083443F070
:10035C008053C2F80834134B1A6822F440421A60D6
:10036C001A6842F480421A605A6822F080025A607D
:10037C009A6842F480429A6003F580631A6822F40A
:10038C007F021A605A6822F4E0625A609A6842F45A
:10039C00AA029A60DA6842F4AA02DA60704700BFD7
:1003AC00003002400004024001460023184602E0DF
:1003BC00013B002B06DD044A12690A42F8D10133D5
:1003CC000120F6E7704700BF0008024030B49DF8EA
:1003DC00084064B1074C256825F47C152560256818
:1003EC00084328432060A1691A430A43A26130BC28
:1003FC00704700BF000802400069084204D105495B
:10040C008B6913438B61704702498A6913438B6173
:10041C00704700BF00040240DFF830D00C480D4993
:10042C000D4A002302E0D458C4500433C4188C4243
:10043C00F9D30A4A0A4C002301E013600432A242A9
:10044C00FBD300F011F8FFF7CBFE70470000032040
:10045C000000002000000020DC0400080000002048
:10046C001C000020FEE7000070B50D4D0D4C641B08
:10047C00A4100026A64209D10B4D0C4C00F018F824
:10048C00641BA4100026A64205D170BD55F8043B90
:10049C0098470136EEE755F8043B98470136F2E7EA
:1004AC00D4040008D4040008D4040008D8040008BC
:1004BC00F8B500BFF8BC08BC9E467047F8B500BF45
:0804CC00F8BC08BC9E46704715
:0404D400D10100084A
:0404D800AD0100086A
:0400000508000425C6
:00000001FF
