:020000040800F2
:1000000000000320010500084D0500084D0500080B
:100010004D0500084D0500084D05000800000000D2
:100020000000000000000000000000004D05000876
:100030004D050008000000004D0500084D050008B2
:100040004D0500084D0500084D0500084D05000848
:100050004D0500084D0500084D0500084D05000838
:100060004D0500084D0500084D0500084D05000828
:100070004D0500084D0500084D0500084D05000818
:100080004D0500084D0500084D0500084D05000808
:100090004D0500084D0500084D0500084D050008F8
:1000A0004D0500084D0500084D0500084D050008E8
:1000B0004D0500084D0500084D0500084D050008D8
:1000C0004D0500084D0500084D0500084D050008C8
:1000D0004D0500084D0500084D0500084D050008B8
:1000E0004D0500084D0500084D0500084D050008A8
:1000F0004D0500084D0500084D0500084D05000898
:100100004D0500084D0500084D0500084D05000887
:100110004D0500084D0500084D0500084D05000877
:100120004D0500084D0500084D0500084D05000867
:100130004D0500084D0500084D0500084D05000857
:100140004D0500084D0500084D0500084D05000847
:100150004D0500084D0500084D0500084D05000837
:100160004D0500084D0500084D0500084D05000827
:100170004D0500084D0500084D0500080000000071
:100180004D0500084D0500084D0500084D05000807
:100190004D0500084D0500084D0500084D050008F7
:0C01A0004D0500084D0500084D05000845
:1001AC0010B5054C237833B9044B13B10448AFF3A5
:1001BC0000800123237010BD00000020000000000F
:1001CC009805000808B5034B1BB103490348AFF36E
:1001DC00008008BD00000000040000209805000805
:1001EC0008B500F003F800F0CDF8FCE73B4A136BC0
:1001FC0043F05E0313633A4BD3F8002822F4400219
:10020C00C3F80028D3F8042822F40062C3F80428A9
:10021C00D3F8082842F48001C3F8081822F400022D
:10022C0042F48002C3F80828D3F80C2842F4800169
:10023C00C3F80C1822F4000242F48002C3F80C2814
:10024C00D3F8002C22F03002C3F8002CD3F8042C85
:10025C0022F00402C3F8042CD3F8082C42F010024C
:10026C00C3F8082CD3F80C2C42F01002C3F80C2C59
:10027C001C4A136823F0300313601B4B196821F0E0
:10028C0030011960516821F004015160596821F066
:10029C0004015960916841F010019160996841F036
:1002AC0010019960D16841F01001D160DA6842F018
:1002BC001002DA60A3F5406319680C4A0A401A6010
:1002CC001A680B490A431A605A6822F4814222F0D8
:1002DC0001025A609A680A439A60704700380240DB
:1002EC00000002400018024000100240FC3FFFCF0B
:1002FC000140001084460023184602E0013B002B0D
:10030C0006DDDCF810200A42F8D101330120F6E7B3
:10031C007047000030B49DF81040F4B1104D2C68BB
:10032C0024F030042C6005F540652C6824F0300472
:10033C002C60A5F500652C6824F030042C60046852
:10034C00224302600A6813430B608369029A1343C9
:10035C0083618B69039A13438B6130BC704700BF78
:10036C00000C02400069084204D105498B69134313
:10037C008B61704702498A6913438B61704700BFD8
:10038C000004024030B585B04FF400615348FFF7CC
:10039C00B1FF18B1524A137801331370504B93F9D3
:1003AC000030052B00F29480DFE803F063031F3B61
:1003BC0056634C4D95F90020D31A18BF01230293B4
:1003CC0004240194009410231A4647494748FFF728
:1003DC00A1FF434B1B782B704FF400038022214666
:1003EC004348FFF7BFFF05B030BD3E4D95F90020E7
:1003FC00D31A18BF012302930424019400941023F0
:10040C001A4639493A48FFF785FF354B1B782B7054
:10041C004FF080434FF4804221463448FFF7A2FF4F
:10042C00E1E7304D95F90020D31A18BF0123029350
:10043C0004240194009410231A462C492C48FFF7ED
:10044C0069FF274B1B782B704FF480330122214618
:10045C002548FFF787FFC6E7224A92F9002093420E
:10046C00C1D021490A6842F010020A601D4A13707B
:10047C00B9E71C4A92F90020934212D01C490A6831
:10048C0022F030020A6001F540610A6822F0300265
:10049C000A60A1F500610A6822F030020A60114A74
:1004AC0013704FF40003802204211148FFF75AFF08
:1004BC004FF080434FF4804204210C48FFF752FF69
:1004CC004FF48033012204210748FFF74BFF8AE7E2
:1004DC00052B88DD024B01221A7084E700080240CC
:1004EC001D0000201C0000200010024000180240DB
:1004FC00000C0240DFF830D00C480D490D4A0023A7
:10050C0002E0D458C4500433C4188C42F9D30A4ABC
:10051C000A4C002301E013600432A242FBD300F02A
:10052C0011F8FFF75DFE704700000320000000206B
:10053C0000000020B805000800000020200000206A
:10054C00FEE7000070B50D4D0D4C641BA410002689
:10055C00A64209D10B4D0C4C00F018F8641BA410EA
:10056C000026A64205D170BD55F8043B98470136CC
:10057C00EEE755F8043B98470136F2E7B005000862
:10058C00B0050008B0050008B4050008F8B500BFB8
:10059C00F8BC08BC9E467047F8B500BFF8BC08BC58
:0405AC009E467047B0
:0405B000D10100086D
:0405B400AD0100088D
:0400000508000501E9
:00000001FF
