:020000040800F2
:1000000000000320D906000825070008250700087E
:100010002507000825070008250700080000000044
:10002000000000000000000000000000250700089C
:10003000250700080000000025070008C906000881
:1000400025070008250700082507000825070008E0
:1000500025070008250700082507000825070008D0
:1000600025070008250700082507000825070008C0
:1000700025070008250700082507000825070008B0
:1000800025070008250700082507000825070008A0
:100090002507000825070008250700082507000890
:1000A0002507000825070008250700082507000880
:1000B0002507000825070008250700082507000870
:1000C0002507000825070008250700082507000860
:1000D0002507000825070008250700082507000850
:1000E0001106000825070008250700082507000855
:1000F0002507000825070008250700082507000830
:10010000250700082507000825070008250700081F
:10011000250700082507000825070008250700080F
:1001200025070008250700082507000825070008FF
:1001300025070008250700082507000825070008EF
:1001400025070008250700082507000825070008DF
:1001500025070008250700082507000825070008CF
:1001600025070008250700082507000825070008BF
:1001700025070008250700082507000800000000E3
:10018000250700082507000825070008250700089F
:10019000250700082507000825070008250700088F
:0C01A000250700082507000825070008B7
:1001AC0010B5054C237833B9044B13B10448AFF3A5
:1001BC0000800123237010BD00000020000000000F
:1001CC007007000808B5034B1BB103490348AFF394
:1001DC00008008BD0000000004000020700700082B
:1001EC0070B500F06BF800F0EDF800F037F900F0A6
:1001FC006FF940F2E2450126002023E01A4B1B78F0
:10020C00DBB21A4AA2FB031202F0FE0101EB52020E
:10021C009B1ADBB2012B05D0022B06D03BB940F266
:10022C00E24504E040F2C71501E040F20715231A3D
:10023C00AB4207D396F0010611D00D4B187800F0A5
:10024C008BF920460B4B1C680B4B1B7813F0010FE2
:10025C00D4D1074B187800F07FF92046F2E700F074
:10026C0057F92046EEE700BF29000020ABAAAAAA46
:10027C002A0000202C0000202800002000B500F0EF
:10028C000700C0F1070CBCF1040F28BF4FF0040CA1
:10029C00031D062B0FD9C31E4FF0FF3E0EFA0CF0B8
:1002AC0021EA000199400EFA03FE22EA0E0241EA0D
:1002BC0002005DF804FB0023EEE700003F4A1368E0
:1002CC0023F0F80343F080031360002393603B4B4F
:1002DC009B6813F00C0FFAD1384A136823F0807323
:1002EC001360364B1B6813F0007FFAD1334A136846
:1002FC0023F410231360314B1B6813F4003FFAD125
:10030C002E4B1A6822F480221A601A6842F480324A
:10031C001A602A4B1B6813F4003FFAD0274B1A685B
:10032C0022F480221A601A6842F400221A60002219
:10033C005A605A6842F480025A605A6822F03F02AE
:10034C0042F004025A605A686FF38E1242F434522F
:10035C005A605A6822F440325A601A6842F080722D
:10036C001A60164B1B6813F0007FFAD1134B9A6876
:10037C0022F0030242F002029A609A6822F0F00224
:10038C009A609A6822F4E05242F4A0529A609A68F9
:10039C0022F4604242F400429A609A6842F0605241
:1003AC009A609A6822F040429A60054A136823F0DA
:1003BC000F0343F005031360704700BF0038024081
:1003CC00003C024010B4204A136B43F05E031363ED
:1003DC001E4B1A6842F4A8021A601D48026842F0CB
:1003EC00100202601B490A6842F010020A601A4AA5
:1003FC00146844F0100414609C6844F47C049C6001
:10040C00846844F0300484608C6844F030048C6060
:10041C00946844F0300494605C6824F460645C601C
:10042C00446824F004044460486820F004004860E8
:10043C00516821F0040151601A6822F040621A6080
:10044C005DF8044B704700BF0038024000080240C2
:10045C00000C0240001802400010024038B5184A47
:10046C00536C43F480435364A2F58032536923F0F8
:10047C00F00343F020035361124B1A6842F400520C
:10048C001A609A6842F400529A60DA6842F4005298
:10049C00DA605A6942F400525A610B4C4FF4807581
:1004AC00C4F88451094BD86800220121C0F3022002
:1004BC00FFF7E4FE0001C0B284F82803656038BD84
:1004CC0000380240003C014000E100E000ED00E09B
:1004DC004FF0E0231A6922F001021A611A6942F006
:1004EC0002021A611A6942F004021A615A6902F096
:1004FC007F4206490A435A619A6902F07F420A43D5
:10050C009A611A6942F001021A6170471FBF02001A
:10051C000F4B9A6942F000729A619A6942F08062BC
:10052C009A619A6942F000629A610A4A936943F4AB
:10053C008023936102F54062936943F480239361B5
:10054C00A2F50062936943F480239361704700BF66
:10055C0000080240000C024006284AD808B538B3FF
:10056C00244A936943F400739361012823D9936956
:10057C0043F480639361022823D91E4A936943F4A0
:10058C0000639361032822D91B4A936943F0040347
:10059C009361042821D9194A936943F004039361A8
:1005AC00052820D9164A936943F00403936108BDCA
:1005BC00FFF7AEFFFBE70F4A936943F0806393614B
:1005CC00D9E70C4A936943F000639361DAE70A4A6E
:1005DC00936943F480239361DBE7084A936943F4FE
:1005EC0080239361DCE7064A936943F4802393618B
:1005FC00DDE7704700080240000C02400018024082
:10060C0000100240244B1A68244B1B68D31A312B60
:10061C0014D9224B1A60224B1B6913F4005F13D0C0
:10062C00204B1B7823B91F4B012119701E4B1A60EC
:10063C001E4A536943F40053536170471B4A536974
:10064C0043F4005353617047164B1B78002BEFD0CB
:10065C00144B00211970144B1B68D21AB2F5FA6FA7
:10066C000AD2134A13780133DBB213701378DBB25E
:10067C00062BDDD91170DBE7B2F57A6F05D20D4A86
:10068C0013780133DBB21370D2E70B4A13780133C2
:10069C00DBB21370CCE700BF2C000020240000203C
:1006AC0000080240200000201C000020003C0140FB
:1006BC002A0000202900002028000020024A13688C
:1006CC0001331360704700BF2C000020DFF830D0DE
:1006DC000C480D490D4A002302E0D458C450043391
:1006EC00C4188C42F9D30A4A0A4C002301E0136067
:1006FC000432A242FBD300F011F8FFF771FD7047F2
:10070C0000000320000000200000002090070008DB
:10071C000000002030000020FEE7000070B50D4DF9
:10072C000D4C641BA4100026A64209D10B4D0C4C99
:10073C0000F018F8641BA4100026A64205D170BD69
:10074C0055F8043B98470136EEE755F8043B9847BB
:10075C000136F2E7880700088807000888070008B8
:10076C008C070008F8B500BFF8BC08BC9E46704763
:0C077C00F8B500BFF8BC08BC9E467047F2
:04078800D101000893
:04078C00AD010008B3
:04000005080006D910
:00000001FF
