:020000040800F2
:100000000000032035040008810400088104000872
:100010008104000881040008810400080000000039
:100020000000000000000000000000008104000843
:100030008104000800000000810400088104000819
:10004000810400088104000881040008810400087C
:10005000810400088104000881040008810400086C
:10006000810400088104000881040008810400085C
:10007000810400088104000881040008810400084C
:10008000810400088104000881040008810400083C
:10009000810400088104000881040008810400082C
:1000A000810400088104000881040008810400081C
:1000B000810400088104000881040008810400080C
:1000C00081040008810400088104000881040008FC
:1000D00081040008810400088104000881040008EC
:1000E00081040008810400088104000881040008DC
:1000F00081040008810400088104000881040008CC
:1001000081040008810400088104000881040008BB
:1001100081040008810400088104000881040008AB
:10012000810400088104000881040008810400089B
:10013000810400088104000881040008810400088B
:10014000810400088104000881040008810400087B
:10015000810400088104000881040008810400086B
:10016000810400088104000881040008810400085B
:1001700081040008810400088104000800000000D8
:10018000810400088104000881040008810400083B
:10019000810400088104000881040008810400082B
:0C01A000810400088104000881040008AC
:1001AC0010B5054C237833B9044B13B10448AFF3A5
:1001BC0000800123237010BD00000020000000000F
:1001CC00CC04000808B5034B1BB103490348AFF33B
:1001DC00008008BD0000000004000020CC040008D2
:1001EC0070B500F0A3F800252C461BE0621B18BF6D
:1001FC0001224FF480614FF4801000F0F5F84A4D65
:10020C004FF4000380224FF40071284600F0FCF8F4
:10021C004FF080434FF480424FF48071284600F039
:10022C00F3F825464FF4006000F0CCF808B1013427
:10023C0064B2052C73D801A353F824F0E50200082E
:10024C00F9010008610200089B020008D3020008B3
:10025C00E5020008621B18BF01224FF400714FF435
:10026C00802000F0C1F8304D4FF4803301224FF460
:10027C008061284600F0C8F84FF080434FF480426C
:10028C004FF48071284600F0BFF82546CAE7621B80
:10029C0018BF01224FF480714FF4803000F0A4F8A5
:1002AC00214D4FF4803301224FF48061284600F039
:1002BC00ABF84FF4000380224FF40071284600F095
:1002CC00A3F82546AEE7AC42ACD0174A136843F40A
:1002DC00A81313602546A5E7AC4205D0124A136853
:1002EC0023F47C13136025460F4E4FF48033012208
:1002FC004FF48061304600F087F84FF40003802201
:10030C004FF40071304600F07FF84FF080434FF40B
:10031C0080424FF48071304600F076F882E7052C6D
:10032C0080DD01247EE700BF00080240214AD2F89C
:10033C00303843F00203C2F8303802F50062136B18
:10034C0043F0040313631C4B1A6822F47F021A60F7
:10035C005A6822F4E0625A609A6842F4AA029A60DF
:10036C00DA6842F4AA02DA60144AD2F8003443F094
:10037C000101C2F8001443F0805343F00103C2F8AA
:10038C000034D2F8083443F08053C2F808340C4BD4
:10039C001A6822F440421A601A6842F480421A60C9
:1003AC005A6822F080025A609A6842F480429A603D
:1003BC00704700BF003002400008024000000240BD
:1003CC000004024001460023184602E0013B002BCA
:1003DC0006DD044A12690A42F8D101330120F6E71E
:1003EC00704700BF0008024052B1064B1A6822F455
:1003FC007C121A601A6802431A609A690A439A615D
:10040C00704700BF000802400069084204D105494A
:10041C008B6913438B61704702498A6913438B6163
:10042C00704700BF00040240DFF830D00C480D4983
:10043C000D4A002302E0D458C4500433C4188C4233
:10044C00F9D30A4A0A4C002301E013600432A24299
:10045C00FBD300F011F8FFF7C3FE70470000032038
:10046C000000002000000020EC0400080000002028
:10047C001C000020FEE7000070B50D4D0D4C641BF8
:10048C00A4100026A64209D10B4D0C4C00F018F814
:10049C00641BA4100026A64205D170BD55F8043B80
:1004AC0098470136EEE755F8043B98470136F2E7DA
:1004BC00E4040008E4040008E4040008E80400086C
:1004CC00F8B500BFF8BC08BC9E467047F8B500BF35
:0804DC00F8BC08BC9E46704705
:0404E400D10100083A
:0404E800AD0100085A
:0400000508000435B6
:00000001FF
